{
  "_format": "hh-sol-artifact-1",
  "contractName": "MusicAwardNFT",
  "sourceName": "Contracts/MusicAwardNFT.sol",
  "abi": [
    {
      "inputs": [],
      "stateMutability": "nonpayable",
      "type": "constructor"
    },
    {
      "anonymous": false,
      "inputs": [
        {
          "indexed": true,
          "internalType": "address",
          "name": "owner",
          "type": "address"
        },
        {
          "indexed": true,
          "internalType": "address",
          "name": "approved",
          "type": "address"
        },
        {
          "indexed": true,
          "internalType": "uint256",
          "name": "tokenId",
          "type": "uint256"
        }
      ],
      "name": "Approval",
      "type": "event"
    },
    {
      "anonymous": false,
      "inputs": [
        {
          "indexed": true,
          "internalType": "address",
          "name": "owner",
          "type": "address"
        },
        {
          "indexed": true,
          "internalType": "address",
          "name": "operator",
          "type": "address"
        },
        {
          "indexed": false,
          "internalType": "bool",
          "name": "approved",
          "type": "bool"
        }
      ],
      "name": "ApprovalForAll",
      "type": "event"
    },
    {
      "anonymous": false,
      "inputs": [
        {
          "indexed": true,
          "internalType": "address",
          "name": "minter",
          "type": "address"
        },
        {
          "indexed": true,
          "internalType": "uint256",
          "name": "tokenId",
          "type": "uint256"
        },
        {
          "indexed": true,
          "internalType": "string",
          "name": "awardType",
          "type": "string"
        }
      ],
      "name": "AwardMinted",
      "type": "event"
    },
    {
      "anonymous": false,
      "inputs": [
        {
          "indexed": true,
          "internalType": "address",
          "name": "previousOwner",
          "type": "address"
        },
        {
          "indexed": true,
          "internalType": "address",
          "name": "newOwner",
          "type": "address"
        }
      ],
      "name": "OwnershipTransferred",
      "type": "event"
    },
    {
      "anonymous": false,
      "inputs": [
        {
          "indexed": true,
          "internalType": "address",
          "name": "from",
          "type": "address"
        },
        {
          "indexed": true,
          "internalType": "address",
          "name": "to",
          "type": "address"
        },
        {
          "indexed": true,
          "internalType": "uint256",
          "name": "tokenId",
          "type": "uint256"
        }
      ],
      "name": "Transfer",
      "type": "event"
    },
    {
      "inputs": [
        {
          "internalType": "address",
          "name": "minter",
          "type": "address"
        }
      ],
      "name": "addApprovedMinter",
      "outputs": [],
      "stateMutability": "nonpayable",
      "type": "function"
    },
    {
      "inputs": [
        {
          "internalType": "address",
          "name": "to",
          "type": "address"
        },
        {
          "internalType": "uint256",
          "name": "tokenId",
          "type": "uint256"
        }
      ],
      "name": "approve",
      "outputs": [],
      "stateMutability": "nonpayable",
      "type": "function"
    },
    {
      "inputs": [
        {
          "internalType": "uint256",
          "name": "",
          "type": "uint256"
        }
      ],
      "name": "awardInfo",
      "outputs": [
        {
          "internalType": "string",
          "name": "artist",
          "type": "string"
        },
        {
          "internalType": "string",
          "name": "songTitle",
          "type": "string"
        },
        {
          "internalType": "string",
          "name": "certificationDate",
          "type": "string"
        },
        {
          "internalType": "string",
          "name": "recordLabel",
          "type": "string"
        },
        {
          "internalType": "string",
          "name": "album",
          "type": "string"
        },
        {
          "internalType": "string",
          "name": "awardType",
          "type": "string"
        }
      ],
      "stateMutability": "view",
      "type": "function"
    },
    {
      "inputs": [
        {
          "internalType": "address",
          "name": "owner",
          "type": "address"
        }
      ],
      "name": "balanceOf",
      "outputs": [
        {
          "internalType": "uint256",
          "name": "",
          "type": "uint256"
        }
      ],
      "stateMutability": "view",
      "type": "function"
    },
    {
      "inputs": [
        {
          "internalType": "uint256",
          "name": "tokenId",
          "type": "uint256"
        }
      ],
      "name": "getApproved",
      "outputs": [
        {
          "internalType": "address",
          "name": "",
          "type": "address"
        }
      ],
      "stateMutability": "view",
      "type": "function"
    },
    {
      "inputs": [
        {
          "internalType": "address",
          "name": "owner",
          "type": "address"
        },
        {
          "internalType": "address",
          "name": "operator",
          "type": "address"
        }
      ],
      "name": "isApprovedForAll",
      "outputs": [
        {
          "internalType": "bool",
          "name": "",
          "type": "bool"
        }
      ],
      "stateMutability": "view",
      "type": "function"
    },
    {
      "inputs": [
        {
          "internalType": "address",
          "name": "minter",
          "type": "address"
        }
      ],
      "name": "isApprovedMinter",
      "outputs": [
        {
          "internalType": "bool",
          "name": "",
          "type": "bool"
        }
      ],
      "stateMutability": "view",
      "type": "function"
    },
    {
      "inputs": [
        {
          "internalType": "string",
          "name": "artist",
          "type": "string"
        },
        {
          "internalType": "string",
          "name": "songTitle",
          "type": "string"
        },
        {
          "internalType": "string",
          "name": "certificationDate",
          "type": "string"
        },
        {
          "internalType": "string",
          "name": "recordLabel",
          "type": "string"
        },
        {
          "internalType": "string",
          "name": "album",
          "type": "string"
        },
        {
          "internalType": "string",
          "name": "awardType",
          "type": "string"
        }
      ],
      "name": "mintAward",
      "outputs": [],
      "stateMutability": "nonpayable",
      "type": "function"
    },
    {
      "inputs": [],
      "name": "name",
      "outputs": [
        {
          "internalType": "string",
          "name": "",
          "type": "string"
        }
      ],
      "stateMutability": "view",
      "type": "function"
    },
    {
      "inputs": [],
      "name": "owner",
      "outputs": [
        {
          "internalType": "address",
          "name": "",
          "type": "address"
        }
      ],
      "stateMutability": "view",
      "type": "function"
    },
    {
      "inputs": [
        {
          "internalType": "uint256",
          "name": "tokenId",
          "type": "uint256"
        }
      ],
      "name": "ownerOf",
      "outputs": [
        {
          "internalType": "address",
          "name": "",
          "type": "address"
        }
      ],
      "stateMutability": "view",
      "type": "function"
    },
    {
      "inputs": [
        {
          "internalType": "address",
          "name": "minter",
          "type": "address"
        }
      ],
      "name": "removeApprovedMinter",
      "outputs": [],
      "stateMutability": "nonpayable",
      "type": "function"
    },
    {
      "inputs": [],
      "name": "renounceOwnership",
      "outputs": [],
      "stateMutability": "nonpayable",
      "type": "function"
    },
    {
      "inputs": [
        {
          "internalType": "address",
          "name": "from",
          "type": "address"
        },
        {
          "internalType": "address",
          "name": "to",
          "type": "address"
        },
        {
          "internalType": "uint256",
          "name": "tokenId",
          "type": "uint256"
        }
      ],
      "name": "safeTransferFrom",
      "outputs": [],
      "stateMutability": "nonpayable",
      "type": "function"
    },
    {
      "inputs": [
        {
          "internalType": "address",
          "name": "from",
          "type": "address"
        },
        {
          "internalType": "address",
          "name": "to",
          "type": "address"
        },
        {
          "internalType": "uint256",
          "name": "tokenId",
          "type": "uint256"
        },
        {
          "internalType": "bytes",
          "name": "data",
          "type": "bytes"
        }
      ],
      "name": "safeTransferFrom",
      "outputs": [],
      "stateMutability": "nonpayable",
      "type": "function"
    },
    {
      "inputs": [
        {
          "internalType": "address",
          "name": "operator",
          "type": "address"
        },
        {
          "internalType": "bool",
          "name": "approved",
          "type": "bool"
        }
      ],
      "name": "setApprovalForAll",
      "outputs": [],
      "stateMutability": "nonpayable",
      "type": "function"
    },
    {
      "inputs": [
        {
          "internalType": "bytes4",
          "name": "interfaceId",
          "type": "bytes4"
        }
      ],
      "name": "supportsInterface",
      "outputs": [
        {
          "internalType": "bool",
          "name": "",
          "type": "bool"
        }
      ],
      "stateMutability": "view",
      "type": "function"
    },
    {
      "inputs": [],
      "name": "symbol",
      "outputs": [
        {
          "internalType": "string",
          "name": "",
          "type": "string"
        }
      ],
      "stateMutability": "view",
      "type": "function"
    },
    {
      "inputs": [
        {
          "internalType": "uint256",
          "name": "tokenId",
          "type": "uint256"
        }
      ],
      "name": "tokenURI",
      "outputs": [
        {
          "internalType": "string",
          "name": "",
          "type": "string"
        }
      ],
      "stateMutability": "view",
      "type": "function"
    },
    {
      "inputs": [
        {
          "internalType": "uint256",
          "name": "tokenId",
          "type": "uint256"
        },
        {
          "internalType": "address",
          "name": "recipient",
          "type": "address"
        }
      ],
      "name": "transferAward",
      "outputs": [],
      "stateMutability": "nonpayable",
      "type": "function"
    },
    {
      "inputs": [
        {
          "internalType": "address",
          "name": "from",
          "type": "address"
        },
        {
          "internalType": "address",
          "name": "to",
          "type": "address"
        },
        {
          "internalType": "uint256",
          "name": "tokenId",
          "type": "uint256"
        }
      ],
      "name": "transferFrom",
      "outputs": [],
      "stateMutability": "nonpayable",
      "type": "function"
    },
    {
      "inputs": [
        {
          "internalType": "address",
          "name": "newOwner",
          "type": "address"
        }
      ],
      "name": "transferOwnership",
      "outputs": [],
      "stateMutability": "nonpayable",
      "type": "function"
    }
  ],
  "bytecode": "0x60806040523480156200001157600080fd5b506040518060400160405280600f81526020017f4d75736963204177617264204e465400000000000000000000000000000000008152506040518060400160405280600281526020017f4d4100000000000000000000000000000000000000000000000000000000000081525081600090816200008f919062000412565b508060019081620000a1919062000412565b505050620000c4620000b8620000ca60201b60201c565b620000d260201b60201c565b620004f9565b600033905090565b6000600760009054906101000a900473ffffffffffffffffffffffffffffffffffffffff16905081600760006101000a81548173ffffffffffffffffffffffffffffffffffffffff021916908373ffffffffffffffffffffffffffffffffffffffff1602179055508173ffffffffffffffffffffffffffffffffffffffff168173ffffffffffffffffffffffffffffffffffffffff167f8be0079c531659141344cd1fd0a4f28419497f9722a3daafe3b4186f6b6457e060405160405180910390a35050565b600081519050919050565b7f4e487b7100000000000000000000000000000000000000000000000000000000600052604160045260246000fd5b7f4e487b7100000000000000000000000000000000000000000000000000000000600052602260045260246000fd5b600060028204905060018216806200021a57607f821691505b60208210810362000230576200022f620001d2565b5b50919050565b60008190508160005260206000209050919050565b60006020601f8301049050919050565b600082821b905092915050565b6000600883026200029a7fffffffffffffffffffffffffffffffffffffffffffffffffffffffffffffffff826200025b565b620002a686836200025b565b95508019841693508086168417925050509392505050565b6000819050919050565b6000819050919050565b6000620002f3620002ed620002e784620002be565b620002c8565b620002be565b9050919050565b6000819050919050565b6200030f83620002d2565b620003276200031e82620002fa565b84845462000268565b825550505050565b600090565b6200033e6200032f565b6200034b81848462000304565b505050565b5b8181101562000373576200036760008262000334565b60018101905062000351565b5050565b601f821115620003c2576200038c8162000236565b62000397846200024b565b81016020851015620003a7578190505b620003bf620003b6856200024b565b83018262000350565b50505b505050565b600082821c905092915050565b6000620003e760001984600802620003c7565b1980831691505092915050565b6000620004028383620003d4565b9150826002028217905092915050565b6200041d8262000198565b67ffffffffffffffff811115620004395762000438620001a3565b5b62000445825462000201565b6200045282828562000377565b600060209050601f8311600181146200048a576000841562000475578287015190505b620004818582620003f4565b865550620004f1565b601f1984166200049a8662000236565b60005b82811015620004c4578489015182556001820191506020850194506020810190506200049d565b86831015620004e45784890151620004e0601f891682620003d4565b8355505b6001600288020188555050505b505050505050565b61432680620005096000396000f3fe608060405234801561001057600080fd5b50600436106101425760003560e01c80638da5cb5b116100b8578063c5d8fea81161007c578063c5d8fea814610378578063c87b56dd14610394578063d46ac962146103c4578063e985e9c5146103e0578063f2fde38b14610410578063ff2505f01461042c57610142565b80638da5cb5b146102e857806395d89b4114610306578063a22cb46514610324578063b88d4fde14610340578063bee4d1061461035c57610142565b80632afc5dba1161010a5780632afc5dba146101fd5780633a3d146f1461023257806342842e0e146102625780636352211e1461027e57806370a08231146102ae578063715018a6146102de57610142565b806301ffc9a71461014757806306fdde0314610177578063081812fc14610195578063095ea7b3146101c557806323b872dd146101e1575b600080fd5b610161600480360381019061015c91906125d9565b610448565b60405161016e9190612621565b60405180910390f35b61017f61052a565b60405161018c91906126cc565b60405180910390f35b6101af60048036038101906101aa9190612724565b6105bc565b6040516101bc9190612792565b60405180910390f35b6101df60048036038101906101da91906127d9565b610602565b005b6101fb60048036038101906101f69190612819565b610719565b005b61021760048036038101906102129190612724565b610779565b6040516102299695949392919061286c565b60405180910390f35b61024c600480360381019061024791906128f7565b610ae5565b6040516102599190612621565b60405180910390f35b61027c60048036038101906102779190612819565b610b3b565b005b61029860048036038101906102939190612724565b610b5b565b6040516102a59190612792565b60405180910390f35b6102c860048036038101906102c391906128f7565b610be1565b6040516102d59190612933565b60405180910390f35b6102e6610c98565b005b6102f0610cac565b6040516102fd9190612792565b60405180910390f35b61030e610cd6565b60405161031b91906126cc565b60405180910390f35b61033e6004803603810190610339919061297a565b610d68565b005b61035a60048036038101906103559190612aef565b610d7e565b005b610376600480360381019061037191906128f7565b610de0565b005b610392600480360381019061038d9190612c13565b610e43565b005b6103ae60048036038101906103a99190612724565b61127a565b6040516103bb91906126cc565b60405180910390f35b6103de60048036038101906103d99190612d48565b61138c565b005b6103fa60048036038101906103f59190612d88565b611461565b6040516104079190612621565b60405180910390f35b61042a600480360381019061042591906128f7565b6114f5565b005b610446600480360381019061044191906128f7565b611578565b005b60007f80ac58cd000000000000000000000000000000000000000000000000000000007bffffffffffffffffffffffffffffffffffffffffffffffffffffffff1916827bffffffffffffffffffffffffffffffffffffffffffffffffffffffff1916148061051357507f5b5e139f000000000000000000000000000000000000000000000000000000007bffffffffffffffffffffffffffffffffffffffffffffffffffffffff1916827bffffffffffffffffffffffffffffffffffffffffffffffffffffffff1916145b806105235750610522826115db565b5b9050919050565b60606000805461053990612df7565b80601f016020809104026020016040519081016040528092919081815260200182805461056590612df7565b80156105b25780601f10610587576101008083540402835291602001916105b2565b820191906000526020600020905b81548152906001019060200180831161059557829003601f168201915b5050505050905090565b60006105c782611645565b6004600083815260200190815260200160002060009054906101000a900473ffffffffffffffffffffffffffffffffffffffff169050919050565b600061060d82610b5b565b90508073ffffffffffffffffffffffffffffffffffffffff168373ffffffffffffffffffffffffffffffffffffffff160361067d576040517f08c379a000000000000000000000000000000000000000000000000000000000815260040161067490612e9a565b60405180910390fd5b8073ffffffffffffffffffffffffffffffffffffffff1661069c611690565b73ffffffffffffffffffffffffffffffffffffffff1614806106cb57506106ca816106c5611690565b611461565b5b61070a576040517f08c379a000000000000000000000000000000000000000000000000000000000815260040161070190612f2c565b60405180910390fd5b6107148383611698565b505050565b61072a610724611690565b82611751565b610769576040517f08c379a000000000000000000000000000000000000000000000000000000000815260040161076090612fbe565b60405180910390fd5b6107748383836117e6565b505050565b600a60205280600052604060002060009150905080600001805461079c90612df7565b80601f01602080910402602001604051908101604052809291908181526020018280546107c890612df7565b80156108155780601f106107ea57610100808354040283529160200191610815565b820191906000526020600020905b8154815290600101906020018083116107f857829003601f168201915b50505050509080600101805461082a90612df7565b80601f016020809104026020016040519081016040528092919081815260200182805461085690612df7565b80156108a35780601f10610878576101008083540402835291602001916108a3565b820191906000526020600020905b81548152906001019060200180831161088657829003601f168201915b5050505050908060020180546108b890612df7565b80601f01602080910402602001604051908101604052809291908181526020018280546108e490612df7565b80156109315780601f1061090657610100808354040283529160200191610931565b820191906000526020600020905b81548152906001019060200180831161091457829003601f168201915b50505050509080600301805461094690612df7565b80601f016020809104026020016040519081016040528092919081815260200182805461097290612df7565b80156109bf5780601f10610994576101008083540402835291602001916109bf565b820191906000526020600020905b8154815290600101906020018083116109a257829003601f168201915b5050505050908060040180546109d490612df7565b80601f0160208091040260200160405190810160405280929190818152602001828054610a0090612df7565b8015610a4d5780601f10610a2257610100808354040283529160200191610a4d565b820191906000526020600020905b815481529060010190602001808311610a3057829003601f168201915b505050505090806005018054610a6290612df7565b80601f0160208091040260200160405190810160405280929190818152602001828054610a8e90612df7565b8015610adb5780601f10610ab057610100808354040283529160200191610adb565b820191906000526020600020905b815481529060010190602001808311610abe57829003601f168201915b5050505050905086565b6000600960008373ffffffffffffffffffffffffffffffffffffffff1673ffffffffffffffffffffffffffffffffffffffff16815260200190815260200160002060009054906101000a900460ff169050919050565b610b5683838360405180602001604052806000815250610d7e565b505050565b600080610b6783611adf565b9050600073ffffffffffffffffffffffffffffffffffffffff168173ffffffffffffffffffffffffffffffffffffffff1603610bd8576040517f08c379a0000000000000000000000000000000000000000000000000000000008152600401610bcf9061302a565b60405180910390fd5b80915050919050565b60008073ffffffffffffffffffffffffffffffffffffffff168273ffffffffffffffffffffffffffffffffffffffff1603610c51576040517f08c379a0000000000000000000000000000000000000000000000000000000008152600401610c48906130bc565b60405180910390fd5b600360008373ffffffffffffffffffffffffffffffffffffffff1673ffffffffffffffffffffffffffffffffffffffff168152602001908152602001600020549050919050565b610ca0611b1c565b610caa6000611b9a565b565b6000600760009054906101000a900473ffffffffffffffffffffffffffffffffffffffff16905090565b606060018054610ce590612df7565b80601f0160208091040260200160405190810160405280929190818152602001828054610d1190612df7565b8015610d5e5780601f10610d3357610100808354040283529160200191610d5e565b820191906000526020600020905b815481529060010190602001808311610d4157829003601f168201915b5050505050905090565b610d7a610d73611690565b8383611c60565b5050565b610d8f610d89611690565b83611751565b610dce576040517f08c379a0000000000000000000000000000000000000000000000000000000008152600401610dc590612fbe565b60405180910390fd5b610dda84848484611dcc565b50505050565b610de8611b1c565b6001600960008373ffffffffffffffffffffffffffffffffffffffff1673ffffffffffffffffffffffffffffffffffffffff16815260200190815260200160002060006101000a81548160ff02191690831515021790555050565b610e4c33610ae5565b610e8b576040517f08c379a0000000000000000000000000000000000000000000000000000000008152600401610e829061314e565b60405180910390fd5b610e9433610ae5565b610ed3576040517f08c379a0000000000000000000000000000000000000000000000000000000008152600401610eca9061314e565b60405180910390fd5b6040518060400160405280600481526020017f476f6c64000000000000000000000000000000000000000000000000000000008152508051906020012081805190602001201480610f6657506040518060400160405280600881526020017f506c6174696e756d000000000000000000000000000000000000000000000000815250805190602001208180519060200120145b80610fb357506040518060400160405280600781526020017f4469616d6f6e6400000000000000000000000000000000000000000000000000815250805190602001208180519060200120145b610ff2576040517f08c379a0000000000000000000000000000000000000000000000000000000008152600401610fe9906131ba565b60405180910390fd5b610ffc6008611e28565b60006110086008611e3e565b905060606040518060400160405280600481526020017f476f6c640000000000000000000000000000000000000000000000000000000081525080519060200120838051906020012003611076576040518060600160405280603b815260200161427b603b913990506110fd565b6040518060400160405280600881526020017f506c6174696e756d000000000000000000000000000000000000000000000000815250805190602001208380519060200120036110e0576040518060600160405280603b8152602001614240603b913990506110fc565b6040518060600160405280603b81526020016142b6603b913990505b5b6000878989848c8c8c8c8c8c6040516020016111229a99989796959493929190613794565b604051602081830303815290604052905061114461113e610cac565b84611e4c565b61114e8382612069565b6040518060c001604052808a815260200189815260200188815260200187815260200186815260200185815250600a600085815260200190815260200160002060008201518160000190816111a39190613abe565b5060208201518160010190816111b99190613abe565b5060408201518160020190816111cf9190613abe565b5060608201518160030190816111e59190613abe565b5060808201518160040190816111fb9190613abe565b5060a08201518160050190816112119190613abe565b50905050836040516112239190613b90565b6040518091039020833373ffffffffffffffffffffffffffffffffffffffff167f69ba87520adc946ef720f2c92ae722f0fe8c392235b7df728e3dda26a9e0341560405160405180910390a4505050505050505050565b606061128582611645565b60006006600084815260200190815260200160002080546112a590612df7565b80601f01602080910402602001604051908101604052809291908181526020018280546112d190612df7565b801561131e5780601f106112f35761010080835404028352916020019161131e565b820191906000526020600020905b81548152906001019060200180831161130157829003601f168201915b50505050509050600061132f6120d6565b90506000815103611344578192505050611387565b600082511115611379578082604051602001611361929190613ba7565b60405160208183030381529060405292505050611387565b611382846120ed565b925050505b919050565b611394611b1c565b61139d82612155565b6113dc576040517f08c379a00000000000000000000000000000000000000000000000000000000081526004016113d390613c17565b60405180910390fd5b600073ffffffffffffffffffffffffffffffffffffffff168173ffffffffffffffffffffffffffffffffffffffff160361144b576040517f08c379a000000000000000000000000000000000000000000000000000000000815260040161144290613c83565b60405180910390fd5b61145d611456610cac565b82846117e6565b5050565b6000600560008473ffffffffffffffffffffffffffffffffffffffff1673ffffffffffffffffffffffffffffffffffffffff16815260200190815260200160002060008373ffffffffffffffffffffffffffffffffffffffff1673ffffffffffffffffffffffffffffffffffffffff16815260200190815260200160002060009054906101000a900460ff16905092915050565b6114fd611b1c565b600073ffffffffffffffffffffffffffffffffffffffff168173ffffffffffffffffffffffffffffffffffffffff160361156c576040517f08c379a000000000000000000000000000000000000000000000000000000000815260040161156390613d15565b60405180910390fd5b61157581611b9a565b50565b611580611b1c565b6000600960008373ffffffffffffffffffffffffffffffffffffffff1673ffffffffffffffffffffffffffffffffffffffff16815260200190815260200160002060006101000a81548160ff02191690831515021790555050565b60007f01ffc9a7000000000000000000000000000000000000000000000000000000007bffffffffffffffffffffffffffffffffffffffffffffffffffffffff1916827bffffffffffffffffffffffffffffffffffffffffffffffffffffffff1916149050919050565b61164e81612155565b61168d576040517f08c379a00000000000000000000000000000000000000000000000000000000081526004016116849061302a565b60405180910390fd5b50565b600033905090565b816004600083815260200190815260200160002060006101000a81548173ffffffffffffffffffffffffffffffffffffffff021916908373ffffffffffffffffffffffffffffffffffffffff160217905550808273ffffffffffffffffffffffffffffffffffffffff1661170b83610b5b565b73ffffffffffffffffffffffffffffffffffffffff167f8c5be1e5ebec7d5bd14f71427d1e84f3dd0314c0f7b2291e5b200ac8c7c3b92560405160405180910390a45050565b60008061175d83610b5b565b90508073ffffffffffffffffffffffffffffffffffffffff168473ffffffffffffffffffffffffffffffffffffffff16148061179f575061179e8185611461565b5b806117dd57508373ffffffffffffffffffffffffffffffffffffffff166117c5846105bc565b73ffffffffffffffffffffffffffffffffffffffff16145b91505092915050565b8273ffffffffffffffffffffffffffffffffffffffff1661180682610b5b565b73ffffffffffffffffffffffffffffffffffffffff161461185c576040517f08c379a000000000000000000000000000000000000000000000000000000000815260040161185390613da7565b60405180910390fd5b600073ffffffffffffffffffffffffffffffffffffffff168273ffffffffffffffffffffffffffffffffffffffff16036118cb576040517f08c379a00000000000000000000000000000000000000000000000000000000081526004016118c290613e39565b60405180910390fd5b6118d88383836001612196565b8273ffffffffffffffffffffffffffffffffffffffff166118f882610b5b565b73ffffffffffffffffffffffffffffffffffffffff161461194e576040517f08c379a000000000000000000000000000000000000000000000000000000000815260040161194590613da7565b60405180910390fd5b6004600082815260200190815260200160002060006101000a81549073ffffffffffffffffffffffffffffffffffffffff02191690556001600360008573ffffffffffffffffffffffffffffffffffffffff1673ffffffffffffffffffffffffffffffffffffffff168152602001908152602001600020600082825403925050819055506001600360008473ffffffffffffffffffffffffffffffffffffffff1673ffffffffffffffffffffffffffffffffffffffff16815260200190815260200160002060008282540192505081905550816002600083815260200190815260200160002060006101000a81548173ffffffffffffffffffffffffffffffffffffffff021916908373ffffffffffffffffffffffffffffffffffffffff160217905550808273ffffffffffffffffffffffffffffffffffffffff168473ffffffffffffffffffffffffffffffffffffffff167fddf252ad1be2c89b69c2b068fc378daa952ba7f163c4a11628f55a4df523b3ef60405160405180910390a4611ada838383600161219c565b505050565b60006002600083815260200190815260200160002060009054906101000a900473ffffffffffffffffffffffffffffffffffffffff169050919050565b611b24611690565b73ffffffffffffffffffffffffffffffffffffffff16611b42610cac565b73ffffffffffffffffffffffffffffffffffffffff1614611b98576040517f08c379a0000000000000000000000000000000000000000000000000000000008152600401611b8f90613ea5565b60405180910390fd5b565b6000600760009054906101000a900473ffffffffffffffffffffffffffffffffffffffff16905081600760006101000a81548173ffffffffffffffffffffffffffffffffffffffff021916908373ffffffffffffffffffffffffffffffffffffffff1602179055508173ffffffffffffffffffffffffffffffffffffffff168173ffffffffffffffffffffffffffffffffffffffff167f8be0079c531659141344cd1fd0a4f28419497f9722a3daafe3b4186f6b6457e060405160405180910390a35050565b8173ffffffffffffffffffffffffffffffffffffffff168373ffffffffffffffffffffffffffffffffffffffff1603611cce576040517f08c379a0000000000000000000000000000000000000000000000000000000008152600401611cc590613f11565b60405180910390fd5b80600560008573ffffffffffffffffffffffffffffffffffffffff1673ffffffffffffffffffffffffffffffffffffffff16815260200190815260200160002060008473ffffffffffffffffffffffffffffffffffffffff1673ffffffffffffffffffffffffffffffffffffffff16815260200190815260200160002060006101000a81548160ff0219169083151502179055508173ffffffffffffffffffffffffffffffffffffffff168373ffffffffffffffffffffffffffffffffffffffff167f17307eab39ab6107e8899845ad3d59bd9653f200f220920489ca2b5937696c3183604051611dbf9190612621565b60405180910390a3505050565b611dd78484846117e6565b611de3848484846121a2565b611e22576040517f08c379a0000000000000000000000000000000000000000000000000000000008152600401611e1990613fa3565b60405180910390fd5b50505050565b6001816000016000828254019250508190555050565b600081600001549050919050565b600073ffffffffffffffffffffffffffffffffffffffff168273ffffffffffffffffffffffffffffffffffffffff1603611ebb576040517f08c379a0000000000000000000000000000000000000000000000000000000008152600401611eb29061400f565b60405180910390fd5b611ec481612155565b15611f04576040517f08c379a0000000000000000000000000000000000000000000000000000000008152600401611efb9061407b565b60405180910390fd5b611f12600083836001612196565b611f1b81612155565b15611f5b576040517f08c379a0000000000000000000000000000000000000000000000000000000008152600401611f529061407b565b60405180910390fd5b6001600360008473ffffffffffffffffffffffffffffffffffffffff1673ffffffffffffffffffffffffffffffffffffffff16815260200190815260200160002060008282540192505081905550816002600083815260200190815260200160002060006101000a81548173ffffffffffffffffffffffffffffffffffffffff021916908373ffffffffffffffffffffffffffffffffffffffff160217905550808273ffffffffffffffffffffffffffffffffffffffff16600073ffffffffffffffffffffffffffffffffffffffff167fddf252ad1be2c89b69c2b068fc378daa952ba7f163c4a11628f55a4df523b3ef60405160405180910390a461206560008383600161219c565b5050565b61207282612155565b6120b1576040517f08c379a00000000000000000000000000000000000000000000000000000000081526004016120a89061410d565b60405180910390fd5b806006600084815260200190815260200160002090816120d19190613abe565b505050565b606060405180602001604052806000815250905090565b60606120f882611645565b60006121026120d6565b90506000815111612122576040518060200160405280600081525061214d565b8061212c84612329565b60405160200161213d929190613ba7565b6040516020818303038152906040525b915050919050565b60008073ffffffffffffffffffffffffffffffffffffffff1661217783611adf565b73ffffffffffffffffffffffffffffffffffffffff1614159050919050565b50505050565b50505050565b60006121c38473ffffffffffffffffffffffffffffffffffffffff166123f7565b1561231c578373ffffffffffffffffffffffffffffffffffffffff1663150b7a026121ec611690565b8786866040518563ffffffff1660e01b815260040161220e9493929190614182565b6020604051808303816000875af192505050801561224a57506040513d601f19601f8201168201806040525081019061224791906141e3565b60015b6122cc573d806000811461227a576040519150601f19603f3d011682016040523d82523d6000602084013e61227f565b606091505b5060008151036122c4576040517f08c379a00000000000000000000000000000000000000000000000000000000081526004016122bb90613fa3565b60405180910390fd5b805181602001fd5b63150b7a0260e01b7bffffffffffffffffffffffffffffffffffffffffffffffffffffffff1916817bffffffffffffffffffffffffffffffffffffffffffffffffffffffff191614915050612321565b600190505b949350505050565b6060600060016123388461241a565b01905060008167ffffffffffffffff811115612357576123566129c4565b5b6040519080825280601f01601f1916602001820160405280156123895781602001600182028036833780820191505090505b509050600082602001820190505b6001156123ec578080600190039150507f3031323334353637383961626364656600000000000000000000000000000000600a86061a8153600a85816123e0576123df614210565b5b04945060008503612397575b819350505050919050565b6000808273ffffffffffffffffffffffffffffffffffffffff163b119050919050565b600080600090507a184f03e93ff9f4daa797ed6e38ed64bf6a1f0100000000000000008310612478577a184f03e93ff9f4daa797ed6e38ed64bf6a1f010000000000000000838161246e5761246d614210565b5b0492506040810190505b6d04ee2d6d415b85acef810000000083106124b5576d04ee2d6d415b85acef810000000083816124ab576124aa614210565b5b0492506020810190505b662386f26fc1000083106124e457662386f26fc1000083816124da576124d9614210565b5b0492506010810190505b6305f5e100831061250d576305f5e100838161250357612502614210565b5b0492506008810190505b612710831061253257612710838161252857612527614210565b5b0492506004810190505b60648310612555576064838161254b5761254a614210565b5b0492506002810190505b600a8310612564576001810190505b80915050919050565b6000604051905090565b600080fd5b600080fd5b60007fffffffff0000000000000000000000000000000000000000000000000000000082169050919050565b6125b681612581565b81146125c157600080fd5b50565b6000813590506125d3816125ad565b92915050565b6000602082840312156125ef576125ee612577565b5b60006125fd848285016125c4565b91505092915050565b60008115159050919050565b61261b81612606565b82525050565b60006020820190506126366000830184612612565b92915050565b600081519050919050565b600082825260208201905092915050565b60005b8381101561267657808201518184015260208101905061265b565b60008484015250505050565b6000601f19601f8301169050919050565b600061269e8261263c565b6126a88185612647565b93506126b8818560208601612658565b6126c181612682565b840191505092915050565b600060208201905081810360008301526126e68184612693565b905092915050565b6000819050919050565b612701816126ee565b811461270c57600080fd5b50565b60008135905061271e816126f8565b92915050565b60006020828403121561273a57612739612577565b5b60006127488482850161270f565b91505092915050565b600073ffffffffffffffffffffffffffffffffffffffff82169050919050565b600061277c82612751565b9050919050565b61278c81612771565b82525050565b60006020820190506127a76000830184612783565b92915050565b6127b681612771565b81146127c157600080fd5b50565b6000813590506127d3816127ad565b92915050565b600080604083850312156127f0576127ef612577565b5b60006127fe858286016127c4565b925050602061280f8582860161270f565b9150509250929050565b60008060006060848603121561283257612831612577565b5b6000612840868287016127c4565b9350506020612851868287016127c4565b92505060406128628682870161270f565b9150509250925092565b600060c08201905081810360008301526128868189612693565b9050818103602083015261289a8188612693565b905081810360408301526128ae8187612693565b905081810360608301526128c28186612693565b905081810360808301526128d68185612693565b905081810360a08301526128ea8184612693565b9050979650505050505050565b60006020828403121561290d5761290c612577565b5b600061291b848285016127c4565b91505092915050565b61292d816126ee565b82525050565b60006020820190506129486000830184612924565b92915050565b61295781612606565b811461296257600080fd5b50565b6000813590506129748161294e565b92915050565b6000806040838503121561299157612990612577565b5b600061299f858286016127c4565b92505060206129b085828601612965565b9150509250929050565b600080fd5b600080fd5b7f4e487b7100000000000000000000000000000000000000000000000000000000600052604160045260246000fd5b6129fc82612682565b810181811067ffffffffffffffff82111715612a1b57612a1a6129c4565b5b80604052505050565b6000612a2e61256d565b9050612a3a82826129f3565b919050565b600067ffffffffffffffff821115612a5a57612a596129c4565b5b612a6382612682565b9050602081019050919050565b82818337600083830152505050565b6000612a92612a8d84612a3f565b612a24565b905082815260208101848484011115612aae57612aad6129bf565b5b612ab9848285612a70565b509392505050565b600082601f830112612ad657612ad56129ba565b5b8135612ae6848260208601612a7f565b91505092915050565b60008060008060808587031215612b0957612b08612577565b5b6000612b17878288016127c4565b9450506020612b28878288016127c4565b9350506040612b398782880161270f565b925050606085013567ffffffffffffffff811115612b5a57612b5961257c565b5b612b6687828801612ac1565b91505092959194509250565b600067ffffffffffffffff821115612b8d57612b8c6129c4565b5b612b9682612682565b9050602081019050919050565b6000612bb6612bb184612b72565b612a24565b905082815260208101848484011115612bd257612bd16129bf565b5b612bdd848285612a70565b509392505050565b600082601f830112612bfa57612bf96129ba565b5b8135612c0a848260208601612ba3565b91505092915050565b60008060008060008060c08789031215612c3057612c2f612577565b5b600087013567ffffffffffffffff811115612c4e57612c4d61257c565b5b612c5a89828a01612be5565b965050602087013567ffffffffffffffff811115612c7b57612c7a61257c565b5b612c8789828a01612be5565b955050604087013567ffffffffffffffff811115612ca857612ca761257c565b5b612cb489828a01612be5565b945050606087013567ffffffffffffffff811115612cd557612cd461257c565b5b612ce189828a01612be5565b935050608087013567ffffffffffffffff811115612d0257612d0161257c565b5b612d0e89828a01612be5565b92505060a087013567ffffffffffffffff811115612d2f57612d2e61257c565b5b612d3b89828a01612be5565b9150509295509295509295565b60008060408385031215612d5f57612d5e612577565b5b6000612d6d8582860161270f565b9250506020612d7e858286016127c4565b9150509250929050565b60008060408385031215612d9f57612d9e612577565b5b6000612dad858286016127c4565b9250506020612dbe858286016127c4565b9150509250929050565b7f4e487b7100000000000000000000000000000000000000000000000000000000600052602260045260246000fd5b60006002820490506001821680612e0f57607f821691505b602082108103612e2257612e21612dc8565b5b50919050565b7f4552433732313a20617070726f76616c20746f2063757272656e74206f776e6560008201527f7200000000000000000000000000000000000000000000000000000000000000602082015250565b6000612e84602183612647565b9150612e8f82612e28565b604082019050919050565b60006020820190508181036000830152612eb381612e77565b9050919050565b7f4552433732313a20617070726f76652063616c6c6572206973206e6f7420746f60008201527f6b656e206f776e6572206f7220617070726f76656420666f7220616c6c000000602082015250565b6000612f16603d83612647565b9150612f2182612eba565b604082019050919050565b60006020820190508181036000830152612f4581612f09565b9050919050565b7f4552433732313a2063616c6c6572206973206e6f7420746f6b656e206f776e6560008201527f72206f7220617070726f76656400000000000000000000000000000000000000602082015250565b6000612fa8602d83612647565b9150612fb382612f4c565b604082019050919050565b60006020820190508181036000830152612fd781612f9b565b9050919050565b7f4552433732313a20696e76616c696420746f6b656e2049440000000000000000600082015250565b6000613014601883612647565b915061301f82612fde565b602082019050919050565b6000602082019050818103600083015261304381613007565b9050919050565b7f4552433732313a2061646472657373207a65726f206973206e6f74206120766160008201527f6c6964206f776e65720000000000000000000000000000000000000000000000602082015250565b60006130a6602983612647565b91506130b18261304a565b604082019050919050565b600060208201905081810360008301526130d581613099565b9050919050565b7f4f6e6c7920617070726f766564206d696e746572732063616e206d696e74206160008201527f7761726473000000000000000000000000000000000000000000000000000000602082015250565b6000613138602583612647565b9150613143826130dc565b604082019050919050565b600060208201905081810360008301526131678161312b565b9050919050565b7f496e76616c696420617761726420747970650000000000000000000000000000600082015250565b60006131a4601283612647565b91506131af8261316e565b602082019050919050565b600060208201905081810360008301526131d381613197565b9050919050565b600081905092915050565b7f646174613a6170706c69636174696f6e2f6a736f6e2c7b000000000000000000600082015250565b600061321b6017836131da565b9150613226826131e5565b601782019050919050565b7f226e616d65223a22000000000000000000000000000000000000000000000000600082015250565b60006132676008836131da565b915061327282613231565b600882019050919050565b60006132888261263c565b61329281856131da565b93506132a2818560208601612658565b80840191505092915050565b7f2062792000000000000000000000000000000000000000000000000000000000600082015250565b60006132e46004836131da565b91506132ef826132ae565b600482019050919050565b7f222c000000000000000000000000000000000000000000000000000000000000600082015250565b60006133306002836131da565b915061333b826132fa565b600282019050919050565b7f226465736372697074696f6e223a224d75736963204177617264204e4654206660008201527f6f72200000000000000000000000000000000000000000000000000000000000602082015250565b60006133a26023836131da565b91506133ad82613346565b602382019050919050565b7f22696d616765223a220000000000000000000000000000000000000000000000600082015250565b60006133ee6009836131da565b91506133f9826133b8565b600982019050919050565b7f2261747472696275746573223a5b000000000000000000000000000000000000600082015250565b600061343a600e836131da565b915061344582613404565b600e82019050919050565b7f7b2274726169745f74797065223a22617274697374222c2276616c7565223a22600082015250565b60006134866020836131da565b915061349182613450565b602082019050919050565b7f227d2c0000000000000000000000000000000000000000000000000000000000600082015250565b60006134d26003836131da565b91506134dd8261349c565b600382019050919050565b7f7b2274726169745f74797065223a22736f6e675469746c65222c2276616c756560008201527f223a220000000000000000000000000000000000000000000000000000000000602082015250565b60006135446023836131da565b915061354f826134e8565b602382019050919050565b7f7b2274726169745f74797065223a2263657274696669636174696f6e4461746560008201527f222c2276616c7565223a22000000000000000000000000000000000000000000602082015250565b60006135b6602b836131da565b91506135c18261355a565b602b82019050919050565b7f7b2274726169745f74797065223a227265636f72644c6162656c222c2276616c60008201527f7565223a22000000000000000000000000000000000000000000000000000000602082015250565b60006136286025836131da565b9150613633826135cc565b602582019050919050565b7f7b2274726169745f74797065223a22616c62756d222c2276616c7565223a2200600082015250565b6000613674601f836131da565b915061367f8261363e565b601f82019050919050565b7f7b2274726169745f74797065223a22617761726454797065222c2276616c756560008201527f223a220000000000000000000000000000000000000000000000000000000000602082015250565b60006136e66023836131da565b91506136f18261368a565b602382019050919050565b7f227d000000000000000000000000000000000000000000000000000000000000600082015250565b60006137326002836131da565b915061373d826136fc565b600282019050919050565b7f5d7d000000000000000000000000000000000000000000000000000000000000600082015250565b600061377e6002836131da565b915061378982613748565b600282019050919050565b600061379f8261320e565b91506137aa8261325a565b91506137b6828d61327d565b91506137c1826132d7565b91506137cd828c61327d565b91506137d882613323565b91506137e382613395565b91506137ef828b61327d565b91506137fa82613323565b9150613805826133e1565b9150613811828a61327d565b915061381c82613323565b91506138278261342d565b915061383282613479565b915061383e828961327d565b9150613849826134c5565b915061385482613537565b9150613860828861327d565b915061386b826134c5565b9150613876826135a9565b9150613882828761327d565b915061388d826134c5565b91506138988261361b565b91506138a4828661327d565b91506138af826134c5565b91506138ba82613667565b91506138c6828561327d565b91506138d1826134c5565b91506138dc826136d9565b91506138e8828461327d565b91506138f382613725565b91506138fe82613771565b91508190509b9a5050505050505050505050565b60008190508160005260206000209050919050565b60006020601f8301049050919050565b600082821b905092915050565b6000600883026139747fffffffffffffffffffffffffffffffffffffffffffffffffffffffffffffffff82613937565b61397e8683613937565b95508019841693508086168417925050509392505050565b6000819050919050565b60006139bb6139b66139b1846126ee565b613996565b6126ee565b9050919050565b6000819050919050565b6139d5836139a0565b6139e96139e1826139c2565b848454613944565b825550505050565b600090565b6139fe6139f1565b613a098184846139cc565b505050565b5b81811015613a2d57613a226000826139f6565b600181019050613a0f565b5050565b601f821115613a7257613a4381613912565b613a4c84613927565b81016020851015613a5b578190505b613a6f613a6785613927565b830182613a0e565b50505b505050565b600082821c905092915050565b6000613a9560001984600802613a77565b1980831691505092915050565b6000613aae8383613a84565b9150826002028217905092915050565b613ac78261263c565b67ffffffffffffffff811115613ae057613adf6129c4565b5b613aea8254612df7565b613af5828285613a31565b600060209050601f831160018114613b285760008415613b16578287015190505b613b208582613aa2565b865550613b88565b601f198416613b3686613912565b60005b82811015613b5e57848901518255600182019150602085019450602081019050613b39565b86831015613b7b5784890151613b77601f891682613a84565b8355505b6001600288020188555050505b505050505050565b6000613b9c828461327d565b915081905092915050565b6000613bb3828561327d565b9150613bbf828461327d565b91508190509392505050565b7f546f6b656e20646f6573206e6f74206578697374000000000000000000000000600082015250565b6000613c01601483612647565b9150613c0c82613bcb565b602082019050919050565b60006020820190508181036000830152613c3081613bf4565b9050919050565b7f496e76616c696420726563697069656e74206164647265737300000000000000600082015250565b6000613c6d601983612647565b9150613c7882613c37565b602082019050919050565b60006020820190508181036000830152613c9c81613c60565b9050919050565b7f4f776e61626c653a206e6577206f776e657220697320746865207a65726f206160008201527f6464726573730000000000000000000000000000000000000000000000000000602082015250565b6000613cff602683612647565b9150613d0a82613ca3565b604082019050919050565b60006020820190508181036000830152613d2e81613cf2565b9050919050565b7f4552433732313a207472616e736665722066726f6d20696e636f72726563742060008201527f6f776e6572000000000000000000000000000000000000000000000000000000602082015250565b6000613d91602583612647565b9150613d9c82613d35565b604082019050919050565b60006020820190508181036000830152613dc081613d84565b9050919050565b7f4552433732313a207472616e7366657220746f20746865207a65726f2061646460008201527f7265737300000000000000000000000000000000000000000000000000000000602082015250565b6000613e23602483612647565b9150613e2e82613dc7565b604082019050919050565b60006020820190508181036000830152613e5281613e16565b9050919050565b7f4f776e61626c653a2063616c6c6572206973206e6f7420746865206f776e6572600082015250565b6000613e8f602083612647565b9150613e9a82613e59565b602082019050919050565b60006020820190508181036000830152613ebe81613e82565b9050919050565b7f4552433732313a20617070726f766520746f2063616c6c657200000000000000600082015250565b6000613efb601983612647565b9150613f0682613ec5565b602082019050919050565b60006020820190508181036000830152613f2a81613eee565b9050919050565b7f4552433732313a207472616e7366657220746f206e6f6e20455243373231526560008201527f63656976657220696d706c656d656e7465720000000000000000000000000000602082015250565b6000613f8d603283612647565b9150613f9882613f31565b604082019050919050565b60006020820190508181036000830152613fbc81613f80565b9050919050565b7f4552433732313a206d696e7420746f20746865207a65726f2061646472657373600082015250565b6000613ff9602083612647565b915061400482613fc3565b602082019050919050565b6000602082019050818103600083015261402881613fec565b9050919050565b7f4552433732313a20746f6b656e20616c7265616479206d696e74656400000000600082015250565b6000614065601c83612647565b91506140708261402f565b602082019050919050565b6000602082019050818103600083015261409481614058565b9050919050565b7f45524337323155524953746f726167653a2055524920736574206f66206e6f6e60008201527f6578697374656e7420746f6b656e000000000000000000000000000000000000602082015250565b60006140f7602e83612647565b91506141028261409b565b604082019050919050565b60006020820190508181036000830152614126816140ea565b9050919050565b600081519050919050565b600082825260208201905092915050565b60006141548261412d565b61415e8185614138565b935061416e818560208601612658565b61417781612682565b840191505092915050565b60006080820190506141976000830187612783565b6141a46020830186612783565b6141b16040830185612924565b81810360608301526141c38184614149565b905095945050505050565b6000815190506141dd816125ad565b92915050565b6000602082840312156141f9576141f8612577565b5b6000614207848285016141ce565b91505092915050565b7f4e487b7100000000000000000000000000000000000000000000000000000000600052601260045260246000fdfe697066733a2f2f516d52746d5a5378556f557445545842587a394464456e4c3977346d66674d594b393633566f5256316355795a342f322e706e67697066733a2f2f516d52746d5a5378556f557445545842587a394464456e4c3977346d66674d594b393633566f5256316355795a342f312e706e67697066733a2f2f516d52746d5a5378556f557445545842587a394464456e4c3977346d66674d594b393633566f5256316355795a342f332e706e67a264697066735822122013b8f68e496a2ce1a22131356a51fd882b0859d1d5fb6a6ca3f466338ee07d6f64736f6c63430008120033",
  "linkReferences": {},
  "deployedLinkReferences": {}
}